:020000022000DC
:10600000000001203D6202009562020097620200DA
:10601000996202009B6202009D6202000000000083
:106020000000000000000000000000009F6202006D
:10603000A162020000000000A3620200A56202004B
:1060400009990200AB620200459D0200AF620200A6
:10605000B1620200B3620200C19B0200B76202009B
:10606000B9620200BB620200BD620200BF620200B0
:10607000C1620200C3620200C5620200C762020080
:10608000C96202003D700200CD620200CF620200D0
:10609000D9700200D36202002DF50200D76202001F
:1060A000D9620200DB620200DD620200DF620200F0
:1060B000E1620200E3620200A7620200A76202003E
:1060C000E5620200E7620200E9620200EB620200A0
:0C60D000ED620200EF620200F1620200CB
:1060DC00364937480A1A02D0072291438D46354972
:1060EC0035480A1A06D00722914381F30988022207
:1060FC0082F3148831483249324A00F045F832486C
:10610C003249334A00F040F832483349334A00F000
:10611C003BF833483349344A00F036F833483449B5
:10612C00344A00F031F834483449354A00F02CF840
:10613C0034483549354A00F027F8354835490022AE
:10614C0000F02DF834483549002200F028F8344886
:10615C003449091A082903DB00220260043001606B
:10616C00314A90471F482049884205D002680430C4
:10617C0003B4904703BCF7E700208646EC460020AA
:10618C0000212A4A9047FEE7884207D0521A05D0D0
:10619C00037801300B700131013AF9D17047884214
:1061AC0002D002700130FAE77047000000000120B5
:1061BC0000E000200000012000000120A40D0300DD
:1061CC00E82B0020642C0020F4620200F462020030
:1061DC0074FB0200A40D0300E82B0020E82B002028
:1061EC00FCFC0200FCFC0200FCFC0200FCFC0200BB
:1061FC00FCFC0200FCFC0200FCFC0200FCFC0200AB
:10620C00A40D0300200E0300642C0020642C00203D
:10621C00642C0020F63B0020F83B0020F83B0020CB
:10622C00F83B0020F85B00206162020075AF0200B1
:10623C000F484FF00701884385460E4880470E48AB
:10624C00016841F470010160BFF34F8FBFF36F8F92
:10625C00FFF73EBF09480A490A4A884207D0521A3A
:10626C0005D0037801300B700131013AF9D1704738
:10627C00000001200193020088ED00E0A4FC020064
:10628C00902B0020E82B0020FEE7FEE7FEE7FEE760
:10629C00FEE7FEE7FEE7FEE7FEE7FEE7FEE7FEE7CA
:1062AC00FEE7FEE7FEE7FEE7FEE7FEE7FEE7FEE7BA
:1062BC00FEE7FEE7FEE7FEE7FEE7FEE7FEE7FEE7AA
:1062CC00FEE7FEE7FEE7FEE7FEE7FEE7FEE7FEE79A
:1062DC00FEE7FEE7FEE7FEE7FEE7FEE7FEE7FEE78A
:0862EC00FEE7FEE7FEE700BF3C
:1062F400F0B595B01C4608460D46164602F0ADFEB4
:106304001A9B099400240D930822234605A92846C4
:1063140008960A948DF82C400C9402F0DCFE079B3E
:106324000293BDF81830ADF80C30BDF81A30ADF852
:106334000E309DF814308DF8114003F00302012A49
:106344001DD1BDF81440059EC3F3C203C4F38314E6
:106354008DF81030A20008230EA9284602F0BBFED7
:10636400C6F3952608AB0093224602AB0EA930462D
:1063740000F0F2FB284602F074FE15B0F0BD022ACC
:10638400F8D1BDF81640C3F3C203C4F389148DF8E1
:1063940010300827082C264628BF08263B463246DC
:1063A4000EA9284602F097FEA41B08AB02AA3146A8
:1063B4000EA8374400F034FC002CEBD1DAE70000DF
:1063C400014B01221A707047A52C00207047000071
:1063D40070B50E4D06460FCD88B06C460FC495E8D7
:1063E4000F0084E80F0008A9002E4FF00603084AA6
:1063F40041F8203D08BF0022064803F00DFA08B119
:1064040000F06EFD044B1E7008B070BDFCFC020071
:10641400C5630200E82B0020642C002007B5044B60
:106424000093044A4023FFF763FF03B05DF804FBC5
:106434003D640200652C002038B50D4B0D4D002045
:1064440018700D4804782D5DD2B21C4665B1043035
:1064540004F0B6F808B100F043FD084B1A7812B105
:106464002378002BFBD038BD0C3003F09FFEF1E7FE
:10647400A52C0020F0340020E82B0020642C002000
:1064840008B50848084A0378D35C3BB1043004F0EB
:1064940033F80020BDE80840FFF79ABF0C3003F042
:1064A40021FEF6E7E82B0020F03400200120FFF75E
:1064B4008FBF000010B5054CFFF7F8FF04212046FC
:1064C40000F0BAFA0123637210BD00BFFC2B002058
:1064D400037813F0030F10B503F0040402D004F0A2
:1064E400FF02F4B1B4B103F00303012B03D0022B78
:1064F40009D0012010BD0A6800880232C0F383105D
:1065040002440A60F5E70B684288023303EB9213F6
:106514000B60EEE70B684288013303EB92130288A9
:10652400F4E7104610BD00002DE9F04F89B006468F
:10653400851C08A8494C019200230F4600F8113D20
:1065440000F0B4FF23683B606268A36813442268C8
:1065540001339B1A04F21C4704F5836A04F21448BD
:10656400AB421AD3019A0023002A6FD0012262F3AE
:10657400010343F0040366F389132168A2689DF8BC
:106584000F000A4003320D4444F82230256000F025
:10659400B1FF012009B0BDE8F08F0121384602F0B7
:1065A40019F8504602F033F8404602F030F80DF185
:1065B40020096068D4F808B049F8100D00EA0B000F
:1065C400033004EB80004946FFF782FF049BB8B90F
:1065D4000BEA030204EB8202D16805919A1C013391
:1065E40003EA0B0B04EB8B0E0492DEF80C300693DB
:1065F40001F00303012B21D0022B04D083460CE0CD
:106604000BEA0300DCE7BDF81630BDF81AB0C3F39B
:106614008913033302EB93030493404601F0FAFF1A
:1066240008B1049B63605946384601F0D3FF6268A1
:10663400A3681344226801339B1A91E7BDF8143010
:10664400BDF81AB0C3F383131344E5E7022262F3DF
:10665400010343F0040366F39F538EE7782D002073
:1066640008B50E4B0E48FF229A600022C3F8182486
:106674001A605A60C3F8142483F8202402F0A4FC9E
:1066840038B9084A084B09499B1ADB0802469A4262
:1066940000D108BD21F822200132F8E7782D00202E
:1066A40064FC0200DCFB020064FC0200902B00206E
:1066B40030B50B4C79B10B4A0B49121BD20800239D
:1066C4009A4201D1002030BD01EB83056D888542DB
:1066D40002D00133F4E7034654F8330030BD00BF61
:1066E400DCFB020064FC0200902B0020094B013902
:1066F40003EBC000032909D8DFE801F00A0204060D
:106704000420704700797047407970470020704733
:1067140002207047DCFB0200034B58681B68C31A55
:1067240058425841704700BF782D00202DE9F043AE
:1067340087B0FFF7F1FF0746002840F0E6807B4D65
:10674400C5F81804BFF34F8F6868AC680DF11808DA
:1067540048F8100D2040033005EB80004146FFF758
:10676400B7FE029B064600285AD104EA0302991C8C
:10677400013305EB8202234005EB8303D268DB6817
:10678400049302F00303022B039202915AD1BDF841
:106794000E306748C3F389194F46502FA8BF5027BE
:1067A40067F38F1307F10801ADF80E3002F024FCF3
:1067B4008046002800F0B08002F04FFC082203A9B4
:1067C4003346404602F05CFC029924EA010201329D
:1067D400920097422FD9002A00F099802140D6B226
:1067E4000331BF1B534C05EB8101FFB20823324632
:1067F400404602F045FC34B106F108033A4621460E
:10680400404602F03DFC029B09F1030903EB9903A6
:106814000293D5F81834002B47D1D5F8104450E032
:106824002A689A4204D86A60384607B0BDE8F08303
:1068340004EA03008FE70C40E11C08233A4605EB09
:106844008101DDE7012B67D1BDF80C303848C3F373
:106854008311062928BF062161F3891302318900B7
:10686400ADF80C3002F0C8FB8046002854D002F08A
:10687400F4FB3346082203A9404602F001FCBDF8AC
:106884000C20C2F38312B31C96424FEA8303C0D296
:1068940002994A1C21400331029205EB8101042232
:1068A400404602F0EDFB0136E9E7404602F0D9FB31
:1068B400FFF732FF80F00100C7B2B5E7637A73BB1C
:1068C4006468002CFAD1404602F0CBFB06A800F81D
:1068D400114D00F0EBFDD5F818340BB9029B6B6039
:1068E4009DF8070000F006FEE2E7236820469B6857
:1068F40098476468002CF8D10F4B1049188800049D
:1069040040F0020000F074F8D2E700278CE7FEB2F2
:1069140014460849174669E7D5F81044EAE723689E
:1069240041461B6820469847CAE700BF782D0020DF
:1069340064FC0200842D0020A42B002028FD02000A
:106944002DE9F74F284C80460F46924601A90122B3
:1069540018469B46A568FFF7E7FD88B3DDF8049069
:10696400002609F102025E4534D100211F4801F0DE
:10697400E4FD80F3100009F101022A4004EB8202D5
:10698400000405EA0903033340EA1840D06014F810
:10699400232068F3C50204F8232034F8232066F387
:1069A400891224F8232054F82320012167F39F221D
:1069B40044F8232061F301026FF3820204F82320D8
:1069C40094F820341BB1FFF7B1FE0028FBD103B0CB
:1069D400BDE8F08F02EA050104EB81015AF8263084
:1069E400CB6001360132BEE7782D002094310020BF
:1069F40000231A46FFF7A4BF13B502AC012344F8E1
:106A0400042D2246FFF79CFF02B010BD07B58DE8A8
:106A14000C0002236A46FFF793FF03B05DF804FB02
:106A24001FB50293069B0192039301AA0323FFF768
:106A340087FF05B05DF804FB0F4A30B5D2F8104467
:106A44000023214641B90372D2F810444CB9C2F86C
:106A540010044160184630BD0D7A9D4205D0496846
:106A6400F0E7626842606060F4E701330A2BE8D122
:106A74004FF0FF33EEE700BF782D0020084A38B509
:106A84000123D2F8104482F820341D4604B938BDDD
:106A94002368657220465B6898476468F6E700BF20
:106AA400782D0020C38873B504460D4633B1144ACB
:106AB40000921449144A284601F00DFE217A052952
:106AC4001CD0637A4BB1A088FFF710FE0F4B10491E
:106AD40053F82020284601F0FEFD227A0D4BA088B1
:106AE40053F822600021FFF7E3FD0B4903463246C9
:106AF400284602B0BDE8704001F0EDBD02B070BDA3
:106B0400A3FD02008BFD020083FD020050FD020084
:106B1400A8FD0200B8FD0200ABFD0200037A052BBC
:106B240010B50C460FD0437A23B1084A08492046D1
:106B340001F0D1FD0749204601F0CDFD2046BDE816
:106B4400104001F0BDBD002AF8D0F3E7A3FD020018
:106B5400A8FD0200A0FD02002DE9F04385B01F4608
:106B64000C9D002306460C46904695F80C902B731A
:106B740029463846FFF796FFB8F1060F09D8DFE833
:106B840008F00412181F283340003146284601F04B
:106B9400A2FD002229463846FFF7C0FF85F80C9075
:106BA40005B0BDE8F08322683146284601F093FD24
:106BB400EFE794E80C003146284601F08CFDE8E745
:106BC400A3680093314694E80C00284601F083FD45
:106BD400DFE7E3680193A3680093314694E80C006F
:106BE400284601F078FDD4E723690293E368019312
:106BF400A3680093314694E80C00284601F06BFD2D
:106C0400C7E76369039323690293E3680193A36865
:106C14000093314694E80C00284601F05CFDB8E787
:106C240008292DE9F84F80460E4617461C4636D8EB
:106C3400002593F80C901D7319461046FFF732FF98
:106C4400DFF87CA0DFF87CB0AE422AD918F8052022
:106C54005946204601F03FFD0135082DF4D116496F
:106C6400DFF864B0204601F036FD0025AE421DD9A0
:106C740018F805A0504608F095FE002814BF5246A7
:106C84002E225946204601F026FD0135082DEDD16E
:106C9400012221463846FFF741FF84F80C90BDE8F5
:106CA400F88F5146204601F016FDD5E703492046EA
:106CB40001F011FDE9E700BF7EFD02007CFD02004A
:106CC4007AFD020074FD020080FD02002DE9F84FF8
:106CD400DFF8A4B00025254B1B78ECB2A34201D801
:106CE400BDE8F88F224BD3F8008018F834900120C7
:106CF4004A46002108F082FDDBE9002300EA02068F
:106D040001EA03073E4308EBC40A2CD023EA01013D
:106D140022EA0000CBE90001484602F045FF18F8DA
:106D24003440814622460120002108F067FD114BC2
:106D3400D3E90067224606400F404846002108F088
:106D44005DFD8F4208BF86420DD1DAF8043053B19D
:106D54009AF801104A1E51425141A1EB09004142E7
:106D64004141204698470135B5E700BF9C310020DA
:106D7400D8310020C8310020D03100202DE9F8435B
:106D840007461F4800F082FB002837D13A4601200D
:106D9400002108F033FD1B4B04460D46D3E90001E6
:106DA40004EA000805EA010958EA09021E461FD14F
:106DB400384602F0F9FE144B98B1D3E900012043A0
:106DC4002943C3E90001D6E900231D430F4B0C48B6
:106DD40019681443C6E900450022BDE8F84300F0F1
:106DE4000FBBD3E9000120EA040021EA0501E8E72A
:106DF40020EA040421EA0505C3E90045BDE8F88357
:106E0400A4310020D0310020C8310020A03100205E
:106E1400042AF7B505460C46164638D902F000FE9A
:106E2400C8B11C4B1C491D601C4B1D4F1C701D4BD5
:106E340000221E600023C1E900231B49C1E900238D
:106E4400013CE4B20026FF2C0BD1184A184800215B
:106E540000F0C4FA03E002F0ABFD0028E1D003B077
:106E6400F0BD23B205EBC302032192788DF8041020
:106E74008DF8052001A93A4615F833008DF806600F
:106E840002F0D8FD013CE4B20028DCD0E7E707209B
:106E9400E5E700BFD8310020C83100209C31002034
:106EA400816D0200A0310020D0310020D16C02009D
:106EB40018FE020070B5084D084E00242B789C4241
:106EC40001D3002070BD3368012113F8340002F0AF
:106ED40025FE0134F2E700BF9C310020D8310020A8
:106EE4001FB50021039001AA44F20100019102910F
:106EF40000F004F805B05DF804FB000010B572B6AC
:106F0400FFF7BCFDFFF712FC0028FBD1104C114920
:106F14002088000440F00100FFF76AFD0E4B1B6857
:106F2400DB0700D500BE20880C49000440F00200B5
:106F3400FFF75EFDBFF34F8F09490A4BCA6802F49D
:106F4400E0621343CB60BFF34F8F00BFFDE700BF88
:106F5400A42B00201CFE0200F0ED00E028FE02003D
:106F640000ED00E00400FA05094A537891780133F2
:106F7400DBB2994208BF0023117899421FBF037006
:106F84005078182303FB002014BF043000207047FE
:106F9400DC31002073B5054602A8002400F8014D39
:106FA4000E4600F083FA0DF10600FFF7DDFF90B105
:106FB40006700A4B9DF8062045605A709DF807003C
:106FC40000F098FA24B9064B4FF48012C3F800215C
:106FD400204602B070BD0424F0E700BFDC3100207D
:106FE40000E100E0024B4FF43C6043F0010318471A
:106FF40040FE020038B50C4B0C4C4FF40032C3F881
:10700400802001254FF48033C4F84833C4F8083392
:107014006560FFF7E7FF064BA56000241C60FFF7DF
:10702400E1FF044B1C7038BD00E100E0001001409A
:10703400F8320020E9320020F8B51F4B1F491B68C5
:107044000025C1F84051C1F84451C1F84851C1F874
:107054004C51C1F80051C1F804514BB3D1F8044567
:1070640017490968641A24F07F442F461A68A2421B
:1070740009D8A41A15441A7CDE691AB11F745A6916
:1070840098699047AEB90F4B0F4A197813788B4221
:1070940005D10133DBB2022B08BF00231370127831
:1070A4000A4B43F822500A4B4FF48012C3F80021D4
:1070B400F8BD3346DAE700BFFC320020001001407F
:1070C400F8320020F4320020F5320020EC320020A7
:1070D40000E100E02DE9F74F9C4A9D4913780978B7
:1070E4009C4E994257D00133DBB2022B08BF0023D8
:1070F400137099491278994B0F6853F822003B1882
:1071040023F07F4300220B603368154614469646ED
:1071140013B942B1336006E01968814229D902B13A
:107124003360091A19604FF0010833688C4FDFF897
:107134003CB200934FF00009002D61D02C46ED695C
:10714400854B60681A68831A23F07F41854B994206
:10715400A36800F2B7800B44236000236360A3603C
:10716400E361336801222274002B40F0B380346061
:10717400E2E7401A0C44D968C3F800E0D3F81CC015
:1071840031B13A1922F07F42DD615A6099601D469F
:1071940063460122BCE70025A846C6E7531CB9781C
:1071A400DBB299423B704FF0180303FB027208BF35
:1071B4003D7013799468022B1BD0032B11D0012B43
:1071C4001ED1217CE1B9D36863601369A36053695C
:1071D400E3609369A361644B1B78002BB0D06160BA
:1071E400AEE7002335681A46002D67D143B13560F8
:1071F40006E0326813469246002B5AD100232374CA
:107204003A787B789342C9D1B9F1000F06D133683B
:10721400009A9A4202D1B8F1000F44D03368002B8F
:1072240073D0D3F800A0514D4B4BD5F804751C68AE
:10723400DFF840813E1B98F8003026F07F46033685
:107244009BB94FF48033C5F84433C5F80433484B35
:107254004FF400324FF00109C3F880211A60C5F8D9
:107264000090FFF7BFFE88F80090B2452CBF54444D
:10727400A41924F07F44C5F84045D5F80435DB1B38
:1072840023F07F43E41B033324F07F44A3420AD951
:10729400D5F80435C5F84035FFF7A4FE344B4FF458
:1072A4000032C3F80021304B00221A7003B0BDE84D
:1072B400F08F9C422CD09A46DB699DE72A74012307
:1072C400ED6991E7121A22F07F429A4234BF9B1A69
:1072D400002341E7226819688A420BD88A1A1A6087
:1072E400E36144E7521AD969184661B92260E16141
:1072F400DC6121E7184619689142F3D3891A1960B1
:1073040019460346F2E70B46F5E7FFF773FECAE7B3
:1073140054450DD1D369336053B90F48019201210B
:10732400CBF808100360104B1970FFF75BFE019A4D
:10733400E1692368CAF81C1011B1086803440B60A2
:1073440033689A4218BF4FF0010957E7F43200201E
:10735400F5320020FC320020F8320020EC3200200C
:10736400DC310020FEFF7F00E832002000100140E5
:1073740000E100E0E932002008B5FFF73BFE114BC5
:1073840000200B2218709A7058700F4B18600F4B26
:1073940018700F4B18700F4B4FF48012E021C3F894
:1073A400802183F814131A6002F18042A2F56F223F
:1073B400C2F8080583F81113074BD2F804251A60A4
:1073C40008BD00BFDC310020FC320020F432002074
:1073D400F532002000E100E0F8320020074B9B78F2
:1073E4004BB132B128B10368187C20B959745A6181
:1073F4007047072070470820704700BFDC31002029
:107404002DE9F7431E4FBB7805460E469046ABB3B5
:10741400A0B3042930D9436983B3437C02A8002470
:10742400012B00F8014D0CBF8946A14600F03EF83F
:107434000DF10600FFF798FDE0B101230370114B35
:107444004560D3F8043583609DF80630C660C0F803
:107454001090C0F814807B709DF8070000F04AF883
:1074640024B9094B4FF48012C3F80021204603B01D
:10747400BDE8F0830424EFE70724F7E70824F5E7E1
:10748400DC3100200010014000E100E0064A92785F
:107494003AB130B1426922B1002202740221FFF7ED
:1074A40079BD0820704700BFDC31002070B5EFF3D0
:1074B400108672B60C4A946801239CB993600B4BF6
:1074C4000B4DD3F8801029401160C3F88050D3F8D5
:1074D400841051604FF0FF32C3F88420047006B961
:1074E40062B670BD0370FAE70033002000E100E0EB
:1074F400FC06FFBD084B9A6810B55AB150B9EFF3BA
:10750400108272B605491C680C605C684C60986017
:1075140002B962B610BD00BF0033002000E100E0F4
:1075240070B5064E0546002456F824300BB12846A3
:1075340098470134042CF7D170BD00BF18330020E4
:10754400033080B240F2FD33984230B51FD8124B5D
:107554001A783AB95C891D892C440444A4B2B4F560
:10756400806F0AD31A7DA2B99A8BDC8B2244024421
:1075740092B2B2F5806F0CD201220A801446142212
:1075840002FB04335A8910445881002030BD09207D
:1075940030BD072030BD00BF4C3300200B4A0C4BDC
:1075A4005188142000FB0131CB6833B904204968A9
:1075B40010700122074801F0FBBA05230649137035
:1075C40002238B80012200230968F3E73033002073
:1075D4004C330020D42B00200434002007B50023B2
:1075E40005490093054A09680548082301F058FA3B
:1075F40003B05DF804FB00BF0434002054FE020015
:10760400D42B002007B50023009301460823034A26
:10761400034801F045FA03B05DF804FB4CFE020098
:10762400D42B002013B500230C46009301460423F9
:10763400074A084801F034FA38B9074B142202FB10
:1076440004340123237402B010BD0E20FBE700BFF5
:1076540048FE0200D42B00204C33002037B50A48E2
:107664000A4B42689C8819685388032503330570C4
:107674009BB2002000909B0001EB8401044801F0C0
:107684000FFA03B030BD00BF3033002004340020B3
:10769400D42B002010B50146044800F082FE1C22C1
:1076A4000446002108F000FA204610BD082C0020F2
:1076B4004388033300EB8303994209D382884FF64E
:1076C400FF739A4206D00088B0FA80F040097047F0
:1076D40002207047012070472DE9F8430223DFF8A8
:1076E40064800B800D46174600F5805600F10804AF
:1076F4004FF00109B44222D2236801331FD031462E
:107704002046FFF7D5FF48B10FB187F80090022853
:107714000BD14FF480632B80BDE8F883A368D8F8BD
:107724000020934201D9C8F800302B8862880333C3
:1077340013442B806388033304EB8304DAE7BDE846
:10774400F88300BF44330020144A142303FB0020B1
:1077540070B50B6844680D4604F5805653B15C88D7
:10776400033403EB8404A64202D9236801330BD10A
:10777400002070BD0834F6E72C60012070BD6388DA
:10778400033304EB8304EEE731462046FFF790FF12
:107794000128F4D0F0D30228EAD0E4E74C330020E7
:1077A400436873B505460C466BB3254AD1688B42D2
:1077B40029D31269934226D813F0030223D1214915
:1077C4000089098988421ED12868996888421AD19B
:1077D4001D494868834203D900F5805083420ED383
:1077E4008A6993420DD902F58052934209D201234A
:1077F40023800020B0FA80F0400902B070BD134627
:10780400F6E70A20F6E7002323801E462388012B8F
:1078140001D90020F1E7019601A92088FFF794FF20
:1078240018B9238801332380F0E7019B2A689968FB
:107834009142F1D16B60034B1B892B81DDE700BFC3
:10784400D42B0020303300204C3300202DE9F843A2
:107854001C461E4B1B7806460F4615467BB38AB35F
:1078640084B3DFF870804FF01409A388012B02D988
:107874000A20BDE8F88309FB03F318F803302BB999
:107884002146A088FFF760FF20B92060A388013358
:10789400A380EAE723681EB1998832889142EFD128
:1078A40047B99A6885E80C00094B1B892B81002095
:1078B400BDE8F88319883A889142E1D1F1E70220C2
:1078C400BDE8F8830520BDE8F88300BF2833002015
:1078D400303300204C33002008B5074B191D58885D
:1078E400FFF732FF18B1BDE80840FFF7B7BEBDE8A7
:1078F4000840FFF753BE00BF303300202DE9F04F9E
:10790400A04FDFF8A49289B00646B8463B6823B975
:1079140049469D4800F07FFD3860D8F800502A7829
:10792400531E052B00F2EC81DFE813F00600700013
:107934007000020102015B0126B1944B00225A60DF
:10794400012425E02B79032B1ED8DFE803F016026F
:107954003C478F490B78022B084632D00B7D022B13
:107964004FF0010340F0108214225343C218002048
:10797400C8545068FFF746FE03E001232B71FFF75C
:107984002DFE002800F0CE80804B00225A600E2489
:107994001422002103A808F087F841F61D539C42E5
:1079A40008BF0024D8F8003004941A78023A042A54
:1079B40000F2C581DFE812F0A601B201D501DD01B4
:1079C400E4010023D0E773497348002302222B719A
:1079D4008A800122096801F0EBF8D2E76D4C002699
:1079E4002E7120686A4DFFF70DFE6C4BD4F800E051
:1079F4005A8814235343EA18EE5451682160A1882D
:107A0400C2F804E011810222A280BAE7B5F814A0FA
:107A1400DFF87CB1B6B1AA7DEB88022A06D914211D
:107A240001FB0AB1DA1C088902440A81142202FB10
:107A34000ABAC3F57F43BAF80A20FD331344AAF8FF
:107A44000A307DE7142303FB0AB319895C68AB7D14
:107A540004EB8104062B05D8DFE803F0274D3543FA
:107A64001C5967000F24AA7DEB88022A06D9142129
:107A740001FB0AB1DA1C088902440A81142202FBC0
:107A84000ABAC3F57F43BAF80A20FD331344AAF8AF
:107A94000A307DE74248434900234360AB690360F1
:107AA400FFF77EFE002800F029810223AB75002336
:107AB40000930423EA182146374800F0F1FF002818
:107AC40030D00E24CFE72B69002B14BF03230123EE
:107AD400AB750023009305F10C02042304F10801A3
:107AE400EAE70123AB750022EB8800929B002A6928
:107AF40004F10C01E0E7032A0CBF05230623AB7550
:107B040000230093042305F10802E118D4E70623B7
:107B1400AB75244B1988224B5868FFF783FD044644
:107B24000028A0D109B0BDE8F08F41F61D549AE7B2
:107B3400002E7FF405AF2B79012B37D005D3022B10
:107B440041F61D5418BF0F2422E702232B7103961C
:107B540004960596EB6803930DF10A0103A8FFF759
:107B64001FFE002800F0CA800498BDF80A1083881C
:107B7400EB8003882B81FFF755FD0446002C7FF42E
:107B840007AFCFE748330020082C0020283300201B
:107B94004C33002004340020D42B00203033002048
:107BA4000C3300201034002040330020DFF8FCA107
:107BB40003AA53463146A81DFFF748FE044650B9B0
:107BC400BAF804100498FFF72DFD04460A2CD5D109
:107BD40041F61D54DCE608223146504607F064FFA6
:107BE400F4E7002E7FF4ACAE6A4B1A7B5AB11E73D5
:107BF4001A78013A062A00F28380DFE802F04A5F2D
:107C0400676A816D78001A78072AF1D801A151F8C2
:107C140022F000BF397C0200F57B0200F57B0200F4
:107C24005F7C0200737C0200937C0200937C020060
:107C34005B7C02001A89584901321A8100225A8059
:107C44001A730A78B2FA82F252099A720A7DB2FA67
:107C540082F25209DA72012207E0504958688A8890
:107C64004088033202448A8002221A70C0E74A4CD8
:107C74005A884A49142505FB024208685468506032
:107C84008888108102228A800C600622EDE7072290
:107C9400EBE79A7A32B1404900229A72CA680AB96B
:107CA400097C51B9DA7A62B10022DA723A4A116A6D
:107CB40039B992F8242022B101225A80FFF70CFE30
:107CC4005BE700221A705A805A6081E7FFF7C6FC0E
:107CD40053E7FFF763FC50E706221A702E4A5B88CD
:107CE400142101FB03235868FFF78CFC45E70722A6
:107CF4001A7000225A60FFF771FC3EE70A2447E637
:107D04000F2445E601228DF80C201A89ADF81820BD
:107D14009A88ADF81A20DB68059310E002228DF8EA
:107D24000C201A89ADF818209A88ADF81A20DA6860
:107D340005929B7D9A1F534253418DF81C3003A832
:107D4400FFF7EEFB002649461548C8F8006000F02E
:107D54008DFB0121134800F04AFC00287FF4D6ADC6
:107D6400E0E603228DF80C20DA88ADF818201A8991
:107D7400CFE704228DF80C20DB88ADF81830DEE75D
:107D840005238DF80C30DAE7074A1370002353609B
:107D94001EE700BF303300204C33002004340020A1
:107DA400082C002000340020283300201434002044
:107DB4004068FFF7A3BD000008B50121044800F0A6
:107DC400FCFB18B9BDE80840FFF798BD08BD00BF2B
:107DD400003400202DE9F3419846344B1B780646C5
:107DE4000D46002B59D0002959D009884FF6FF734E
:107DF400994256D06B88002B53D06B689B0752D1A5
:107E04004AB92F890DF102013846FFF799FB30B1C9
:107E140002B0BDE8F08113885788ADF8023001A89C
:107E2400FFF738FC044658B9BDF80230204A142143
:107E340001FB032358890338C01B58810820E7E756
:107E440000238375BDF8023083826B68036180F878
:107E540000800121174800F0BDFBE0602B882381DE
:107E64006B88A380B8F1030F04BF0423A375E780D4
:107E740004BF3368A3610025658101A90E4800F0A1
:107E8400BAFA36B17560E36833600C4BB5721B897E
:107E94003381FFF791FF0020BAE70220B8E70520FD
:107EA400B6E70420B4E70320B2E700BF283300207C
:107EB4004C33002044330020082C002030330020B1
:107EC40008B5084B1A68042A09D01968064A42F80A
:107ED40021000121184600F07DFB002008BD0C2084
:107EE40008BD00BF0C340020183300202DE9F04FEA
:107EF40089B01422002103A807F0D6FD7A4A13782A
:107F040003F0FF01009191463BB103A8FFF708FB82
:107F14000026304609B0BDE8F08F101D00F074FB58
:107F240005460028F4D14FF010234FF080525B69CE
:107F340011695269DFF8DCA1581C08BF02FB01F388
:107F4400CAF810300022A3F540536849CAF80C302F
:107F5400504600F077FD06460028DAD11C238C2217
:107F64006349644800F0E8F93746B0464FF0030B24
:107F74003446CDF804A0019BDA6818EB02000CD05B
:107F840058F802205C4B9A4207D142685B4B9A42F4
:107F940000F083805A498A425ED0021F00F6FC71C9
:107FA40052F8043F013340F091809142F8D1554A90
:107FB400116829B9022101231060918000930EE019
:107FC40014226243504B4FF0020C991803F802C07C
:107FD4004E4A486054800134A1F808C0A4B247F066
:107FE400010708F58058B8F5405FC4D1BBF1010F13
:107FF40088BF3D46EDB2022D02D0062D02D05DB9F8
:108004000B2686E7012389F8003003A80023C9F86A
:108014000430FFF785FA7CE702A8FFF73BFBC8B101
:108024000123013D03700A2D09D8DFE805F0060895
:108034000608070807080F110F000023037102A99F
:108044002C4800F0D8F9FFF7B7FE62E70323F5E701
:108054000223F3E708265CE7009BDFF8A8A073B1CE
:10806400294B1422624399184FF0020E03F802E0E0
:108074000134DAF800204A60A1F808E0A4B2002232
:108084002349CAF80000FFF727FBBAF80420022AA4
:1080940014BF082204221743A3E71B494FF0140E10
:1080A4000EFB04FE01EB0E024FF0000C01F80EC0B3
:1080B40050600EF110020EF1080E0A447144FFF7ED
:1080C4000BFB47F002070134A4B28AE70E491422DD
:1080D400624301EB020E0BF1FF33CEF804000320E0
:1080E4001FFA83FB8854EEE728330020580003006E
:1080F40074330020082C0020DEC0ADDEFE011EF12A
:10810400FF011EF1043400204C33002030330020E2
:1081140008340020D42B002073B50D460446C8B1A2
:10812400C1B10DF10601FFF73BFBA8B10B4BBDF844
:1081340006006668142202FB003001210C3000F0B6
:1081440049FA63682E600C336B600123A37200202C
:1081540002B070BD0520FBE70A20F9E74C3300208C
:1081640013B50446A8B10DF10601FFF719FB90B150
:108174000B4ABDF80630142101FB0323DA6862B10F
:10818400A27A52B1DA680020013ADA60A07202B031
:1081940010BD0520FBE70A20F9E70620F7E700BF3A
:1081A4004C3300200B4B1B7837B504460D4663B1A6
:1081B40068B10DF106012846FFF7C2F918B9BDF8F8
:1081C40006302380658003B030BD0220FBE7052024
:1081D400F9E700BF28330020104B1B7810B5B3B16A
:1081E400B8B10288022A16D80D494388142404FB26
:1081F40002129C1C51898C420DDAC3F57F43FD3376
:108204000B445381002303804380184610BD022091
:1082140010BD052010BD042010BD00BF2833002070
:108224004C33002002230022FFF7D4BD12B10223F5
:10823400FFF7D0BD0520704718B103230022FFF7D4
:10824400C9BD052070470000104B1B7813B50446C8
:10825400ABB14FF6FF73984213D001A8FFF71AFA97
:1082640088B10523037001230371C48001A9084860
:1082740000F0C1F8FFF7A0FD002002B010BD0220FD
:10828400FBE70420F9E70820F7E700BF28330020C4
:10829400082C00200E4B1B7807B5A3B101A8FFF7EB
:1082A400F9F990B10623037001A90A4800F0A3F874
:1082B400094B1A780AB101221A73FFF77DFD0020D9
:1082C40003B05DF804FB0220FAE70820F8E700BFDA
:1082D40028330020082C00203033002007B5ADF8E7
:1082E400060002A820F8041D01460DF10600FFF760
:1082F400ADFA03B05DF804FB13B502AC134624F8E1
:10830400020D0A4600202146FFF7A0FA02B010BD74
:1083140013B502AC134624F8020D0A462046002188
:10832400FFF794FA02B010BD20B119B103680B60D5
:10833400002070470520704710B561B1B2FBF3F41B
:1083440003FB1424A4B244B980E81200846082813F
:10835400C381204610BD0E2010BD092010BD82B07F
:1083640050E8022FC188B2EB324F4FF0000317BF21
:1083740092B241EA014142EA014104E04268B2EBAF
:10838400324F08BF012340E80212002AE8D18DF8D9
:1083940007309DF80730002B0CBF1120002002B0DD
:1083A400704737B550E8013F9DB2C489254484899C
:1083B400A54228BF2D1B0489A54202BFBFF32F8FFE
:1083C400002207E0C5EA030540E80154002CE9D186
:1083D4004FF001028DF803200193019B9DF80320C7
:1083E4000B6002F0FF0322B10B880068184403B04D
:1083F40030BD1846FBE70A884B889A4209D150E8F9
:10840400012FC2EA024240E80123002BF7D10120E8
:1084140070470020704737B550E8023F1FFAA3F5B4
:10842400C488A54202BFBFF32F8F00220DE0C48988
:1084340025448489A54228BF2D1BC3EA054540E88D
:108444000254002CE8D14FF001028DF8032001936F
:10845400019B9DF803200B6002F0FF0322B14B88BF
:108464000068184403B030BD1846FBE70A884B88FF
:108474009A4209D150E8022FC2EA224240E802237C
:10848400002BF7D1012070470020704701F01F0234
:108494004B090121914000EB830000F067B84B09C0
:1084A40010B501F01F040121A14000EB830000F08E
:1084B40050F8E04000F0010010BD01F01F0301225C
:1084C4009A404B0900EB8300D14300F069B84B0993
:1084D40001F01F0150F82300C84000F0010070476C
:1084E4002DE9F0474E1E760980460F4601360025D9
:1084F40058F8254008EB850AE44394FAA4F4B4FA46
:1085040084F44FEA4519202C06D10135AE42EFD848
:108514003C462046BDE8F0874C44A742F5D92146A5
:108524004046FFF7BCFF0028F3D0DAF80040E443EC
:1085340094FAA4F4B4FA84F4E5E700B550E8002F03
:108544000B4640E8003E9EF0000FF7D110465DF860
:1085540004FB00B550E8002F42EA010340E8003E66
:108564009EF0000FF6D110465DF804FB00B550E80C
:10857400003F43EA010240E8002E9EF0000FF6D1CE
:1085840010465DF804FB00B550E8002F02EA010331
:1085940040E8003E9EF0000FF6D110465DF804FB63
:1085A40000B550E8003F03EA010240E8002E9EF0C7
:1085B400000FF6D110465DF804FB00B550E8002F1B
:1085C40002EB010340E8003E9EF0000FF6D1104696
:1085D4005DF804FB00B550E8003F03EB010240E8FE
:1085E400002E9EF0000FF6D110465DF804FB00B596
:1085F40050E8003FA3EB010240E8002E9EF0000F7C
:10860400F6D110465DF804FB0121FFF7A2BF01215A
:10861400FFF7ACBF0021FFF7B6BF10B590B14268B9
:10862400836801689B1ADBB20A60013BDBB2FF2B53
:10863400026802D10020107110BD11684C1C146036
:108644000B70F2E70E2010BD37B5054602A80024D2
:1086540000F8014DFEF72AFF2A686B6811689942F9
:108664000ED9481E106011F8014CEB68A98A01FB71
:108674000434AB6811791B1ADBB2994238BF137109
:108684009DF80700FEF736FF204603B030BD37B52E
:10869400054602A8002300F8013D0C46FEF706FF3C
:1086A4002A681368591C1160E968641AA98AB4FB22
:1086B400F1F41C709DF80700FEF71CFF03B030BDF9
:1086C400826810B504462AB1436901680069984775
:1086D4000023A36010BD0EB403B5039929B102AA07
:1086E40004AB42F8043D00F06DF802B05DF804EB11
:1086F40003B07047826830B40468551C8560A15487
:10870400826843689A4202D330BCFFF7D9BF30BCB9
:10871400704700002DE9F84F0A9C99460B9B1746B9
:10872400824688460A460126BA420FD24E4538BFD1
:108734004E4613F0010B01D164B900240125B9F1AF
:10874400010F1AD909F1FF397D43F8E7B2FBF7F2BB
:108754000136E9E79B070ED5B9F1000F0CBF3025B0
:108764002025A642EAD2013C29465046FFF7C2FF23
:10877400002CF6D1E1E72025F3E7B8FBF5F39F429F
:10878400E2D9DFF83C90B8FBF5F3504619F8031032
:1087940005FB1388FFF7AEFFB5FBF7F5002DF2D10B
:1087A400BBF1000F0AD03CB9BDE8F88F013C202191
:1087B4005046FFF79FFF0CB1A642F7D3BDE8F88FF0
:1087C4006BFE02002DE9F74F054617460C460029BB
:1087D40000F0358114F8011B49B92B7B002B00F004
:1087E4002E81284603B0BDE8F04FFFF769BF252965
:1087F40040F0218123460026194611F8012B2D2A29
:1088040024D0302A26D02B2A27D000242A2A99467D
:1088140003F1010124D13B681A1D1B683A601C4412
:10882400894699F800302E2B25D109F101014FF02A
:108834000008894611F8012BA2F1300009281CD840
:108844000A2303FB0823A3F13008F2E746F00106EC
:108854000B46D1E746F00206FAE746F00406F7E7CE
:108864001A780B46A2F130010929DAD80A2101FB52
:108874000424303CCAE74FF0000899F8001001F0D6
:10888400FB02682A02D119F8011FF8E769290FD001
:108894004BD8582965D007D825296ED009F1010491
:1088A4002378002B96D198E7632962D06429F5D107
:1088B4003A68D2F800A0111D8AEAEA723960A2EB84
:1088C400EA724FF0010B092A5BDCC34538BFC3468B
:1088D4002CB1BAF1000F01DB710700D5013CB207DE
:1088E40002D5B8F1000F04D0F30702D4002C4ED106
:1088F4000024BAF1000F52DACAF1000A2D212846E9
:10890400FFF7F8FE06F00302022A05D1B8F1000FC2
:1089140002D1002C47D100248DE8500043460A229E
:1089240051462846FFF7F6FEB8E773294CD014D811
:108934007029B3D13B681A1D3A60302128461C685F
:10894400FFF7D8FE78212846FFF7D4FE00230193D1
:108954000823009310222146E3E775292BD07829B8
:108964009CD139680A1D3A6043468DE850001022B4
:1089740028E03B681A1D19783A602846FFF7BAFECA
:108984008CE70A230BF1010B92FBF3F29BE7A3455F
:10899400AFD220212846013CFFF7ACFEA6E77007C2
:1089A400B0D52B21ABE7A345B6D230212846013CF4
:1089B400FFF7A0FEADE739680A1D3A608DE8500064
:1089C40043460A220968ACE73B681A1D3A60F1077E
:1089D400D3F800A012D55646A6EB0A0B16F8011BD5
:1089E40041B95C457FF65AAF20212846013CFFF788
:1089F40081FEF6E72846FFF77DFEEDE7BAF1000FAA
:108A040011D0504607F084F80646B44200D964B940
:108A14000AF1FF3A1AF8011F00293FF43FAF284634
:108A2400FFF768FEF6E75646EFE720212846013CAB
:108A3400FFF760FEE9E72846FFF75CFE30E703B086
:108A4400BDE8F08F07B50B4678B9104B104A18886B
:108A54000E2300930F4B00040F4940F00100FDF773
:108A6400DFFF0E2003B05DF804FB3BB9074B0B4A54
:108A740018880E2300930004064BEDE703601B687F
:108A8400114603B05DF804EB184700BFC02B00206B
:108A940028FF02007BFE02002DFF0200A4FF02005B
:108AA4002DE9F743DDF828C078B9364B364A1888E3
:108AB400364B0E2400040094354940F00100FDF7C4
:108AC400AFFF204603B0BDE8F0833AB92D4B314ADD
:108AD40018882E4B0E2400040094EDE7D0F800E033
:108AE400BEF1000F07D1274B2B4A1888274B0824C7
:108AF40000040094E0E73BB9224B284A1888234B32
:108B0400092400040094D7E74768D7F80490B3FB1E
:108B1400F9F709FB17373FB11A4B214A18881B4B49
:108B2400092400040094C7E78F0707D0154B1D4A9A
:108B34001888164B102400040094BDE712F0030FAC
:108B440007D0104B184A1888104B102400040094C6
:108B5400B2E7C768B9420DD34C1E05691C44AC4248
:108B640008D8CDF828C0DEF80C40A44603B0BDE810
:108B7400F0436047034B0D4A1888044B102400044B
:108B8400009499E7C02B002028FF02008DFE02000C
:108B94002DFF0200AAFF02009EFF02005DFF0200FB
:108BA400B0FF0200DAFF0200F2FF0200150003002A
:108BB400F7B570B9254B264A1888264B0E240004B5
:108BC4000094254940F00100FDF72AFF204603B038
:108BD400F0BDD0F800E0BEF1000F07D11B4B1F4AD7
:108BE40018881C4B082400040094EAE73AB9174B90
:108BF4001B4A1888174B092400040094E1E74768CE
:108C0400D7F800C00CF1FF370F4207D00F4B154ABD
:108C14001888104B102400040094D2E7C768B942A6
:108C240005D34C1E05690CFB0244AC4207D9074B23
:108C34000D4A1888074B102400040094C1E7DEF89D
:108C44001040A44603B0BDE8F0406047C02B0020AC
:108C540028FF0200A0FE02002DFF02009EFF02007A
:108C64005DFF0200B3FE0200D9FE020070B508B138
:108C74000368B3B90D4D0E4B14225B1B0024B3FBE8
:108C8400F2F302FB03F6A64201D1002070BD2B597A
:108C940028190BB91434F6E7DB6998470028F9D092
:108CA40070BDDB69BDE87040184700BFD42B0020BD
:108CB400E82B002029DF704728DF704770B5036870
:108CC4009D6886B004460E466DB1182200216846A0
:108CD40006F0EAFEA3680593237901962BB1012BD4
:108CE4000DD06846A84706B070BD01238DF800304A
:108CF40023690293E368039363690493F1E702230E
:108D04008DF80030E3681B030293F5E708467047CB
:108D140000207047024B187A003018BF01207047BA
:108D2400A8340020034B187A0122B0FA80F05A7458
:108D340040097047A834002008B510461A4606F0CA
:108D440089FE002008BD000008B514220021044853
:108D540006F0AAFE0348FFF702FB002008BD00BF8F
:108D6400A83400201C2C002010B5094C094B43608A
:108D74002046FFF749FC40B906F0BCFB1C232074D5
:108D84008C2205490548FFF7D7FA002010BD00BF23
:108D9400A83400204C0003001C3400201C2C0020AC
:108DA40070B5244D244E2B7A2C463BB923492448D4
:108DB400FFF731FB306008B9686070BD022323728D
:108DC40033681A7972B1012A24D018460321FFF7B7
:108DD40075FF00232372636018491948BDE8704089
:108DE400FFF744BB98695A69D9681D69121AB2F52C
:108DF400805F28BF4FF480529208012A014438BF93
:108E040001222844FFF756FF50B11128DDD1012378
:108E1400237270BDD8681A691044FFF74DFFF3E759
:108E2400237C2BB90146BDE87040022000F00AB84B
:108E340070BD00BFA8340020C0340020BC34002022
:108E44001C2C002038B5831E012B45D8234C237AD3
:108E5400002B41D0022B09D1032830D0204B1B68B2
:108E64000022E2601A793AB1012A22D0637C7BBBEA
:108E7400BDE83840FFF794BF9A6959698D1AB5F572
:108E8400805F94BF521902F580529A619142EDD1EC
:108E940002284FF0000308BF19462372104B18BF75
:108EA4000D211868FFF70AFF0E490F48FFF7DEFA95
:108EB400DCE71A6901321A615B699A42E7E7E36801
:108EC4000133082B01D8E360D0E70023E360DFE738
:108ED400BDE8384006F0FEBA38BD00BFA834002013
:108EE400C0340020BC3400201C2C002000F0FD0302
:108EF400012B08D1044B00225A74421E50425041A7
:108F04001874FFF74DBF7047A834002010B5064C05
:108F1400201DFFF779FB28B9637C1BB9BDE810401D
:108F2400FFF73EBF10BD00BFA83400202DE9F34178
:108F340080460D460F4801A916461F46FFF731FA31
:108F44000446A8B11C22002106F0AEFD2D0B01231E
:108F5400237101A9C4F80080A760E5606661054833
:108F6400FFF749FAFFF7D2FF002002B0BDE8F08115
:108F74000420FAE71C2C00202DE9F743814688469B
:108F8400104801A917461E46FFF70BFA0446B8B16C
:108F94001C22002106F088FD00250A9BA36001A97C
:108FA4002571C4F80090C4F81080E7606661054834
:108FB400FFF721FAFFF7AAFF284603B0BDE8F083C4
:108FC4000420FAE71C2C0020FFF727BBF8B54679EC
:108FD4000446721E00239342246804D301460025EC
:108FE400B54202D3F8BD0133F5E70F682046FFF719
:108FF4004EFB01353946F3E72DE9F843878ACD1C4A
:109004008046FFF721FB043F3D440446B5FBF7F5DA
:10901400002650B10123EDB206714371C780013DB2
:10902400C0F800808146AE4202D32046BDE8F883F2
:109034004046FFF709FB074648B163790133637182
:109044000136C9F80000C0F800808146EBE72046ED
:10905400FFF7BCFF3846BDE8F88301210430FFF771
:10906400B9BA10B5012104460430FFF7C0FA10F074
:10907400FF0F04D12046BDE81040FFF7A7BF10BD85
:109084002DE9F843C68804330F46B3FBF6F41546BE
:1090940006FB143380463CB9A6EB0309A94528BF57
:1090A400A9462DB9BDE8F883D8F80080013CF2E761
:1090B400043308EB0300A5EB09054A46391906F009
:1090C400C9FCAE424C44D8F80080B1464FF00003CE
:1090D40028BFA946E5E72DE9F843C6880F46191DC0
:1090E4001546B1FBF6F4804606FB14113CB9A6EB19
:1090F4000109A94528BFA9462DB9BDE8F883D8F8C8
:109104000080013CF2E704314144A5EB09054A46DD
:10911400381906F09FFCAE424C44D8F80080B146A2
:109124004FF0000128BFA946E6E741DF7047000081
:10913400064B10B500241C70054B1C60BFF35F8FF9
:109144000449054800F030F8204610BDCC34002016
:10915400D034002088000300C434002007B502A8DE
:10916400002300F8013DFEF7A1F9F1EE103A23F0D7
:109174009F03E1EE103ABFF35F8F0A4B4022C3F81E
:1091840084219DF80700FEF7B5F906F0B3F920B184
:10919400FFF7CBFF03B05DF804FB20BF40BF20BF47
:1091A400F8E700BF00E100E00B684A6843609342BF
:1091B40008BF0023016008BF43607047436843B1A0
:1091C4000268916852680B449342436004BF0023D1
:1091D400436070470D4930B5A1F594720225914260
:1091E40001D8002030BD8B1ADB1093FBF5F302EBA2
:1091F400C30452F83330834205D802D204F1080282
:10920400EDE7606830BD2146E9E700BFD8010300FF
:1092140008B5FFF7DFFF024B002808BF184608BD5A
:109224009D0003000B7B23B14B6803600023037193
:1092340070470B6803600123F9E703684A6889688B
:1092440010B5D41A8C428BBF5B18002303600260F4
:1092540098BF037110BD03680A68896810B59C1A29
:109264008C428BBF5B1A01230360026098BF0371B9
:1092740010BD037910B504461BB1FFF7DEFF20686B
:1092840010BDFFF7E8FFFAE7094B1B78062B0CD15A
:10929400084B1B681A0708D1074B186800F0F00048
:1092A400A0F130035842584170470020704700BF76
:1092B400E00F00F0E40F00F0E80F00F00C4B1B7817
:1092C400062B10D10B4B1B681A070CD10A4B1868DC
:1092D40000F0F003302B08D000F0E000A0F14003D0
:1092E400584258417047002070470120704700BF22
:1092F400E00F00F0E40F00F0E80F00F008B5FFF70E
:10930400DDFF28B17F4B804A1B68C3F3042313603D
:10931400FFF7BAFF10B17D4B7D4A1A60FFF7CEFF0D
:1093240028B17C4B7C4A1B68C3F342331360FFF7BC
:10933400ABFF20B1794AD36823F08073D360FFF781
:10934400BDFF40B14FF080430022C3F80C21C3F8A5
:109354001021C3F83825FFF797FF10B1704B032293
:109364001A60FFF791FF40B16E4B05221A6001228B
:109374009A6700229A603F225A606B4B1B78062B37
:1093840009D16A4B1B68190705D1694B1B6803F0A7
:10939400F003502B67D0FFF791FF28B1654B664A65
:1093A4001B6803F04F031360FFF788FF48B14FF0C9
:1093B4008043D3F80024D20744BF6FF00102C3F8FE
:1093C40000245E4B1B68062B04D15D4B1B68062BE7
:1093D40000F091805B4AD2F8883043F47003C2F8FD
:1093E4008830BFF34F8FBFF36F8F4FF01023D3F844
:1093F4000022002A03DBD3F80432002B2FDA524B6D
:109404000122C3F80425D3F80024002AFBD04FF02E
:1094140010221521C2F80012D3F80024002AFBD030
:109424004FF010231522C3F80422474B1A46D3F8F1
:1094340000140029FBD00021C3F80415D2F800342D
:10944400002BFBD0BFF34F8F3E49404BCA6802F458
:10945400E0621343CB60BFF34F8F00BFFDE73C4B8B
:109464003C4A1A6008BD4FF080523B4BD2F80414BA
:10947400C3F82015D2F80814C3F82415D2F80C1434
:10948400C3F82815D2F81014C3F82C15D2F8141404
:10949400C3F83015D2F81814C3F83415D2F81C14D4
:1094A400C3F84015D2F82014C3F84415D2F8241494
:1094B400C3F84815D2F82814C3F84C15D2F82C1464
:1094C400C3F85015D2F83014C3F85415D2F8341434
:1094D400C3F86015D2F83814C3F86415D2F83C14F4
:1094E400C3F86815D2F84014C3F86C15D2F84424B4
:1094F400C3F870254FE7194A136843F48063136077
:1095040068E700BF240300104035014074C00740E1
:109514000DF0ADBA440200103C050040F0ED00E04F
:10952400A005004010560040E00F00F0E40F00F0EA
:10953400E80F00F058020010E40E00403001001063
:109544003401001000ED00E000E001400400FA05E1
:10955400302C00200090D00300C000403C17004095
:10956400054A4FF0A043105CD3F8043523FA00F009
:10957400C04300F00100704796050300044B1A5CD9
:10958400012393404FF0A042C2F80C35704700BF4E
:1095940096050300044B1A5C012393404FF0A0424C
:1095A400C2F80835704700BF9605030008B50020CF
:1095B400FFF7F0FF0120FFF7EDFF0220FFF7EAFFBE
:1095C4000320BDE80840FFF7E5BF08B50020FFF71A
:1095D400D5FF0120FFF7D2FF0220FFF7CFFF0320C2
:1095E400BDE80840FFF7CABF074A4FF0A041105C2E
:1095F400D1F804350122824022EA03001340C1F865
:109604000805C1F80C35704796050300054A4FF06C
:10961400A043105CD3F8103523FA00F0C04300F0E7
:1096240001007047920503000D2809D00E2809D0C7
:109634000F2809D010280CBF03204FF0FF307047CB
:10964400002070470120704702207047014B185CCE
:10965400704700BF92050300C20708B501460CD548
:109664004FF0A0430322C3F84427C3F84827C3F8A4
:109674004C27C3F85027FFF799FF8B070AD54FF003
:10968400A0430C22C3F83427C3F83827C3F83C2777
:10969400C3F8402708BD000038B5084C04F108039E
:1096A4000546002818BF1C4623682BB11A6822609F
:1096B4005B6828469847F7E738BD00BFDC340020D4
:1096C40020B9054B01225A70FFF7E6BF012802D1E9
:1096D400014A9070F8E77047D434002020B9034B56
:1096E40001225A70FFF7D8BF704700BFD43400205E
:1096F40038B50B4C237883B90A486360A3602361AF
:10970400E36000F0D1F8054605F0F4FE08B900F076
:10971400D9F801232370284638BD8525FBE700BF0F
:10972400D4340020C596020037B502A80023094CA2
:1097340000F8013DFDF7BAFEE368013BE360E5682C
:1097440015B900F0D3F8A5709DF80700FDF7D2FE17
:1097540003B030BDD4340020012813B509D003D39D
:1097640003281BD002B010BD0F4B0122C3F8802088
:10977400F8E702A800230D4C00F8013DFDF796FE22
:1097840023780BB9FFF7B4FFE3689DF807000133B2
:10979400E3600123A370FDF7ADFEE3E700F092F868
:1097A400FFF7C2FFDEE700BF00E100E0D434002091
:1097B4001FB503788DF8003043680193037A8DF860
:1097C4000830C3680393054A054B684653F82130B3
:1097D40052F82110984705B05DF804FBE8340020E6
:1097E400EC3400201FB503788DF8003043680193F2
:1097F40083688DF80830C3680393054A054B6846AF
:1098040053F8213052F82110984705B05DF804FB55
:10981400E8340020EC340020F0B5194B067891F8B8
:109824001DC043F82620174B96460A6943F82620A4
:10983400154B03F806C00C4607460FCC89B06D469D
:109844000FC594E80F0085E80F000496BCF1000FE3
:109854000AD0BEF1000F0D4A694608BF0022381D28
:1098640000F080FD09B0F0BDBEF1000F084A694662
:1098740008BF002207F10C0000F072FBF2E700BF02
:10988400EC340020E8340020F0340020B5970200C6
:10989400E997020000F180400023036082B003686E
:1098A4000193019B02B07047054A13792BB901213A
:1098B400106011715371184670478520704700BFBE
:1098C400F4340020084B1A68D20706D4E02283F847
:1098D40000230122C3F880211A604FF08043012243
:1098E400C3F81825704700BF00E100E0044B0122D3
:1098F4001A604FF08042D2F81834DB03FBD470476F
:109904000C000040124B1B6810B573B14FF480700B
:10991400FFF7C0FF4FF080430122C3F808230D4B2B
:10992400587910B95A711B6898470B4B1B6873B16F
:109934004FF48270FFF7AEFF4FF080430222C3F86A
:109944000823044B01201B68BDE81040184710BDD4
:1099540000010040F43400200401004000F1804084
:1099640000F5C040002382B0036003680193019BAB
:1099740002B07047800000F1A040D0F8003723F413
:109984004033C0F80037D0F8003743EA0141C0F84B
:1099940000177047054B4FF0FF32072843F820208B
:1099A40084BF1B1883F84820704700BFFC34002094
:1099B40010B5174C94F8583043BBFF21E21801331B
:1099C400202B82F83010F9D10021C8B2FFF7E2FF52
:1099D40001310C29F9D1002104220E4806F064F863
:1099E4000D4BE02283F806234022C3F880214FF474
:1099F400BE701A60FFF7B2FF084B4FF00042C3F885
:109A04000423012384F85830002010BD082010BD21
:109A1400FC3400205035002000E100E000600040EC
:109A2400034B93F85800003018BF0120704700BF63
:109A3400FC340020F0B5374D2B1893F93030002B4F
:109A440065DA8E78C6F34006002E0BBF0823002388
:109A54000C240824A34201D10420F0BD55F823703E
:109A6400013740D12F185CB287F8304045F82320E5
:109A740016B92B4483F848008B785A0713D4DE07B1
:109A840033D5830003F1A043D3F8002722F0020268
:109A9400C3F80027204EC20800F007070123BB408B
:109AA400B75C3B43B3548B780A7813F0020325D098
:109AB400A30003F1804303F5C0430002D3F810155B
:109AC40021F4473121F44071C3F810151204D3F87E
:109AD400101500F4F85002F4403210430843C3F860
:109AE40010050020F0BD0133B4E74A7800F5E073B7
:109AF4004FF0A046920046F82320CBE7083C2C44C4
:109B040094F8500040EA821284F85020E9E70820D3
:109B1400F0BD00BFFC3400205035002038B5204C87
:109B2400251895F93020072A18DD224492F8483088
:109B34009B09032B0DD14FF0A043D3F81035C3403C
:109B440013F0010F0CBF02210321BDE83840FFF7D9
:109B540011BF012B14BF03210221F6E7D3B2072B57
:109B64001CD8930003F1804303F5C043D3F81005D8
:109B740040F00100C3F8100502F14000800080B2FB
:109B8400FFF7ECFE51B195F9303054F823302BB186
:109B9400012303FA02F2034BC3F8042338BD00BFC8
:109BA400FC340020006000404FF0A043D3F810358F
:109BB40023FA00F000F00100704700002DE9FF4790
:109BC40000245A4A5A4E5B4D01940121A2F5C0402B
:109BD40052F8043B012B80B206D1D6F804330B4271
:109BE40002D0FFF7BBFE0C43AA424FEA4101EDD17C
:109BF400514B1B68012B0AD14FF4BE70FFF7AEFE28
:109C04004FF0A04344F00044D3F81035019314F00E
:109C1400FF0F38D1002C80F2858000230293DFF8F7
:109C24001C914FF0FF33039301260024A0464FF00C
:109C3400A04709EB080393F95020531C61D0D2B21A
:109C440022F0C005E90804A8084402F0070310F84C
:109C540004EC06FA03F31EEA030F52D009EB050ED7
:109C640092099EF930E059F82EA0BAF1000F26D1DE
:109C7400032A46D10DF1080C1CF801E04EEA030E4C
:109C84000CF801E01DE02D4F01260025344210D0D0
:109C9400AB0003F1804303F5C043D3F81005D3F8B8
:109CA400101557F8253023B1C1F30141C0F3042046
:109CB40098470135082D4FEA4606E7D1AAE7032A5B
:109CC400D8D005F5E07110F80C0C57F821101842A3
:109CD400C1F3014105D0022913D1032A0BD1114646
:109CE40004E003290DD1032A05D102212846FFF7F8
:109CF40041FE0134E4B2BAF1000F02D01146284605
:109D0400D04708F10108B8F1040F92D154B14FF0D3
:109D1400A043019AD3F81035934203D00193029BD8
:109D2400039382E704B0BDE8F08700BF0061004000
:109D340000600040206100407C610040FC34002051
:109D4400014B1B68184700BF583500200D4B984243
:109D540037B50D4610D102A8002300F8013DFDF7E8
:109D6400A5FB094B1C7914B901221D601A719DF8D9
:109D74000700FDF7BFFB14B9002003B030BD11206C
:109D8400FBE700BF0020004058350020034B9842F9
:109D940001BF034B00221A601A7170470020004073
:109DA400583500200023435082B043580193019B4F
:109DB40002B070470A4610B54FF48E71FFF7F2FFF8
:109DC400136A9168C95C136A01331362C0F81C15E5
:109DD40010BD8B690A4610B54FF4847123B9FFF79F
:109DE400E1FFD0F8183510BDFFF7DCFF536AD168E6
:109DF400D0F81805C854536A0133536210BD0000EB
:109E04001FB501238DF80030044B02900191684680
:109E140093E80600904705B05DF804FB6035002028
:109E240030B54D4AD2F8043313F4007F85B015469B
:109E34004FD0D2F82431002B4BD04FF492711046FE
:109E4400FFF7B0FF4FF40173C2F80833434B93F8A4
:109E5400291009B9012151603F4902228DF80020DF
:109E6400D1F88024C1F8802403929A690292DA68B6
:109E7400019200229A61DA61684693E806009047ED
:109E84003548D0F81C315BB134490A6A4B699A42AF
:109E94000A464CD291F82830002B48D1FFF78AFFAC
:109EA4002D4AD2F8443193B14FF4A2711046FFF712
:109EB40079FF2A4B93F8291009B1012111609A699D
:109EC4002AB100229A61586AD968FFF799FF05B050
:109ED40030BDD5F804335B07D2D5D5F80831002B53
:109EE400CED01E4C1C482146FFF773FF636AA2695B
:109EF4009A422346C4D1E26952B12369E168E3601E
:109F04000023606AA261E3616362FFF779FFB7E748
:109F140094F829200AB901226A600F4A4FF40171AA
:109F2400C2F8081300229A61586AD968EDE74FF421
:109F34008E710948FFF736FF51690029B0D000231C
:109F4400029191688DF8003001915361684692E85E
:109F54000A009847A4E700BF0020004060350020B5
:109F64002DE9F8435B4B047991462C2202FB043221
:109F7400064692F82A200D469846002A40F0A5800D
:109F840055490068FFF7E2FE0746002840F09F802D
:109F940029683368481C0BD04FF0A04001228A4046
:109FA400C0F8082501F5E0724FF0030E40F822E0F6
:109FB4006868421C1FBF00F5E0724FF0A04E4FF0DE
:109FC400000C4EF822C0AA6995F814E0C3F82425C1
:109FD4006A7DBEF1010F4EEA0202C3F86C25C3F894
:109FE4001405C3F80C151DD1AA68511C1FBF02F536
:109FF400E0714FF0A0404FF0000E40F821E0E96816
:10A00400481C0BD04FF0A04E01208840CEF8080524
:10A0140001F5E0704FF0030C4EF820C0C3F80815AA
:10A02400C3F810252C23634308EB0302C2F8049001
:10A034002A6948F80320B9F1000F33D04FF48E7128
:10A0440030682D7FFFF7AEFE30684FF4A271FFF742
:10A05400A9FE3268214BC2F80433120B53B2002B11
:10A06400A8BF03F160404FEA53134FEA4511BABF4A
:10A074001B4802F00F0500F561404FEA8303B4BFAB
:10A08400C9B2C9B203F16043B4BF415580F80013AB
:10A0940003F5614302F01F02012101FA02F2C3F841
:10A0A40080211A6033680422C3F800252C2303FBA3
:10A0B400048300229A61DA6183F829205A6101221B
:10A0C40083F82A203846BDE8F8830827FAE71127E1
:10A0D400F8E700BF60350020259E020080000200E2
:10A0E40014ED00E0F8B5047900682D4D0023C0F8A4
:10A0F40000352C2303FB04535B6873B1294BC0F870
:10A104000833020B53B201215B0902F01F0201FA6A
:10A1140002F22033244941F82320D0F80C65D0F80A
:10A124001415D0F80835D0F810254FF0FF37BE428B
:10A13400C0F8147518BF06F5E076C0F80C75C0F8C1
:10A144000875C0F810751EBF4FF0A0474FF0020EFF
:10A1540047F826E04E1C1FBF4FF0A04601F5E07102
:10A16400022746F82170511C1FBF4FF0A04102F591
:10A17400E072022641F822605A1C1FBF03F5E07307
:10A184004FF0A042022142F82310FFF7FFFD2C23D9
:10A1940003FB0454002384F82A306360F8BD00BF35
:10A1A400603500208402020000E100E02DE9F8435C
:10A1B400234F06794FF02C0909FB06748046656924
:10A1C400002D37D16261A16025624FF48E71006861
:10A1D40084F82850FFF7E6FDD8F8000001238360D7
:10A1E4002146FFF7E7FD6368A14633BBD8F800506A
:10A1F400226A63699A4212D3D8F80030D3F81C213A
:10A20400002AFBD00122DA6000202C2303FB06760F
:10A2140000237361BDE8F88394F8283043B9D5F876
:10A224001C31002BF8D049462846FFF7C3FDDFE771
:10A234000F20EAE71120BDE8F8832846BDE8F8833B
:10A24400603500200023435082B043580193019BA2
:10A2540002B070471FB501238DF80030054B8DF80F
:10A2640008000191684693E80600904705B05DF840
:10A2740004FB00BF8C3500207FB5384AD2F8246136
:10A28400002E49D010464FF49271FFF7DBFF0223F2
:10A294008DF80030D2F88034C2F880340393D2F8B9
:10A2A4003C358DF808302E4BDA68019200229A6111
:10A2B400DA61684693E806009047284AD2F84431A8
:10A2C40073B14FF4A2711046FFF7BCFF244B996998
:10A2D40031B100219961D2F83C05D968FFF7BAFF82
:10A2E4001E4AD2F82031ABB14FF490711046FFF7FB
:10A2F400A9FF1B4B596969B1D2F84C158DF80810A8
:10A30400002299688DF8002001915A61684693E80B
:10A314000600904704B070BDD2F81031002BCCD0A9
:10A324004FF488711046FFF78DFF0D4BD2F83C05B2
:10A3340099698842C1D1DC696CB1D2F80052D968FC
:10A3440025F02005C2F800521A699C61DA60DE61CA
:10A35400FFF780FFB1E79C61D968F9E7002000406E
:10A364008C3500202DE9F8435F4B06799146242271
:10A3740002FB0632044692F820200D469846002A35
:10A3840040F0AD8059490068FFF7E0FC074600281B
:10A3940040F0A78029682368481C0BD04FF0A040E8
:10A3A40001228A40C0F8082501F5E0724FF0030E3F
:10A3B40040F822E06868421C1FBF00F5E0724FF0CD
:10A3C400A04E4FF0000C4EF822C0AA6995F814E094
:10A3D400C3F824256A7DBEF1010F4EEA0202C3F8D8
:10A3E4006C25C3F80C15C3F814051DD1AA68511CBB
:10A3F4001FBF02F5E0714FF0A0404FF0000E40F88F
:10A4040021E0E968481C0BD04FF0A04E01208840A1
:10A41400CEF8080501F5E0704FF0030C4EF820C0AB
:10A42400C3F80815C3F810252423734308EB03026B
:10A43400C2F804902A6948F80320B9F1000F3DD00E
:10A444004FF4887120682D7FFFF7FCFE4FF4907164
:10A454002068FFF7F7FE4FF492712068FFF7F2FED1
:10A4640020684FF4A271FFF7EDFE2268204BC2F87A
:10A474000433120B53B2002BA8BF03F160404FEA20
:10A4840053134FEA4511BABF1A4802F00F0500F5FD
:10A4940061404FEA8303B4BFC9B2C9B203F1604358
:10A4A400B4BF415580F8001303F5614302F01F0265
:10A4B400012101FA02F2C3F880211A6023680822FC
:10A4C400C3F80025242303FB068300229A61DA6182
:10A4D4005A61012283F820203846BDE8F883082712
:10A4E400FAE71127F8E700BF8C3500207DA20200AF
:10A4F4001003020014ED00E0F8B5047900682D4D56
:10A504000023C0F80035242303FB04535B6873B1B4
:10A51400294BC0F80833020B53B201215B0902F046
:10A524001F0201FA02F22033244941F82320D0F813
:10A534000C65D0F81415D0F80835D0F810254FF074
:10A54400FF37BE42C0F80C7518BF06F5E076C0F8B8
:10A554001475C0F80875C0F810751EBF4FF0A047F9
:10A564004FF0020E47F826E04E1C1FBF4FF0A046E6
:10A5740001F5E071022746F82170511C1FBF4FF00E
:10A58400A04102F5E072022641F822605A1C1FBF66
:10A5940003F5E0734FF0A042022142F82310FFF7C5
:10A5A400F5FB242303FB0454002384F82030636068
:10A5B400F8BD00BF8C3500201003020000E100E06C
:10A5C40001F06043B3F1005F2DE9F041074632D159
:10A5D4001D4B0679242505FB063598466C696CBB32
:10A5E4006A61A96000684FF49071FFF72BFE4FF485
:10A5F400AC713868FFF726FE3B686A69A968C3F83E
:10A604004415C3F8482501229A606A68CAB9D3F888
:10A614002011D3F8582149B9002AF8D00F20242357
:10A6240003FB068600237361BDE8F081002A14BF92
:10A634000F200020F3E71020BDE8F0811120BDE8D1
:10A64400F0812046BDE8F0818C3500200220FEF721
:10A65400CBBF000008B5094B1B7853B10020FEF7AF
:10A6640099FF0120FEF796FF0320BDE80840FEF79E
:10A6740091BFBDE80840FEF799BF00BFB135002087
:10A68400F8B5764C237805461BB100232370FFF7F9
:10A69400E1FF172D00F28380DFE805F00C13133F70
:10A6A4005060717B83888388909494949494BEC200
:10A6B400C9D0DADAFFF7CEFF694B00241C702046BC
:10A6C400F8BD0020FEF74CFFF8B10020FEF762FF52
:10A6D400022D0CBF4FF4E1614FF47A61604B1D70A1
:10A6E4004FF400404FF4FA740025E0FB01454FF4A9
:10A6F4007A7200232046294605F094F80022014688
:10A704005848BDE8F840FCF77BBEFEF737FF022D42
:10A714000CBFC8214FF4C871E0E70020FEF720FF0A
:10A7240040B10020FEF736FF4FF4487103224C4B32
:10A734001A70D5E7FEF722FFC821F7E70020FEF7DD
:10A744000FFF30B10020FEF725FF4FF47A61042299
:10A75400EDE7FEF713FF4FF4C871F8E70020FEF7AA
:10A76400FFFE48B10020FEF715FF3D4B05221A708D
:10A7740041F69A110022C3E7FEF700FFF5E7002037
:10A78400FEF732FF364B06221A70002240F6CD4106
:10A79400B6E70020FEF7F2FE0722314B1A700024C0
:10A7A4008DE701202070FEF71FFFEEE701202070E7
:10A7B400FEF71AFF00224FF48041A1E7FEF705FFE0
:10A7C4000C22EAE72848294EFCF760FED5F1110572
:10A7D40004461CD0D8B9012D13D0C8235D434FF4CF
:10A7E400FA7000214FF400474FF47A720023C7FB3C
:10A7F400050105F017F8224601461B48FCF700FE48
:10A8040004460220FEF7BAFE0123337057E7022004
:10A81400FEF7C0FE0023F8E7FFF71CFF1222BCE797
:10A82400FFF718FF0020FEF7A9FE1322B5E7FFF794
:10A8340011FF0120FEF7A2FE1422AEE7FFF70AFF84
:10A844000020FEF79BFE0120FEF798FE1522A4E7E8
:10A85400FEF7BBFE024B1D70A1E700BF24360020AB
:10A864002C360020F4350020B4350020B13500200A
:10A874002DE9F04781460D46FEF7D6FE032804462F
:10A8840031D8012D04D022D3022D2ED0BDE8F0877B
:10A89400194D47003A18A918AE5C4A7852B1DFF84E
:10A8A4006880164842464FF40041FCF7A9FD08B9F8
:10A8B40088F800903B192B449A78114B1A5596B19D
:10A8C400104B1B687BB13046BDE8F04718470B4876
:10A8D400FCF7DCFD084B04EB440213449E78084B60
:10A8E4001B5DB342EBD0BDE8F087034B00EB4004A3
:10A8F4001C446678E3E700BF14360020D4350020FA
:10A904002D36002028360020B035002002210078A2
:10A91400FFF7AEBF044B1B68DB0703D5034B187866
:10A92400FFF7AEBE704700BF203600202C36002053
:10A93400032801D8FEF76ABE00207047044B1B6849
:10A9440013F0010301D0FFF79BBE1846704700BF08
:10A954002036002038B51C4B18601C4B10F0020444
:10A96400054619601AD01A4B1A480E221A700F2283
:10A97400DA7010229A7111225A72042140F266622E
:10A98400FCF746FA044648B9FCF794FA044628B999
:10A994000146114A1148FCF721FD0446EB0711D585
:10A9A4000120FEF759FE6CB921460D4A0D48FCF70B
:10A9B40015FD044630B90C4A0C480121BDE8384065
:10A9C400FCF70CBD204638BD203600202836002078
:10A9D40014360020BC05030011A90200E0050300A1
:10A9E40019A90200E405030051A60200DC050300D6
:10A9F400032812D8012A0BD1012908D100F10E0233
:10AA0400D2B200EB40000C4B1A54002070470022D5
:10AA14000129F6D009D3022901D007207047064B3B
:10AA240000EB400018444270EFE7034B00EB40009A
:10AA340018448270E9E700BF14360020032808B5E3
:10AA440012D8FEF703FE800000F1A040D0F80037D2
:10AA540023F44033C0F80037D0F8003743F44033D0
:10AA6400C0F80037002008BD062008BD08B5012243
:10AA740002210020FFF7BCFF08B1072810D10722EC
:10AA840002210120FFF7B4FF08B1072808D10021F3
:10AA94000A220846FFF7ACFF10B1072808BF0020C0
:10AAA40008BD00000388102B10B502D0112B1ED056
:10AAB40010BD194C2168B1B901220846FFF798FF6F
:10AAC40008B1072821D1072202210120FFF790FFB6
:10AAD40008B1072819D1042202210020FFF788FFBA
:10AAE40008B1072811D123680133236010BD0A4A35
:10AAF4001368013B136073B9FFF7B8FF58B1074BF4
:10AB04001B6843B1BDE810401847044B1B68002B79
:10AB1400E9D09847E7E710BD3836002034360020E6
:10AB240008B50020FFF78AFF08B1062806D10120E6
:10AB3400FFF784FF10B1062808BF002008BD0000FD
:10AB44000D4B10B518600C4629B10120FFF7F0FE3B
:10AB540040B102232370094B1B6853B9BDE8104070
:10AB6400FFF784BFFFF7E4FE08B10B23F2E7207080
:10AB7400F1E7002010BD00BF343600203836002035
:10AB840033DF704776DF704778DF70477ADF7047CE
:10AB94007CDF70478FDF70477047FCF7A1B908B5B9
:10ABA4000020FFF7CBFE08B1FCF79AF9FFF7B8FFD6
:10ABB40008B1FCF795F9FFF7E3FF18B1BDE80840C9
:10ABC400FCF78EB908BD0000034B0448197881F0E6
:10ABD4000101197004F098BB44380020903700201C
:10ABE40010B51249124C1348FEF743FB236881B297
:10ABF40001331148236004F03FFB30F0080209D010
:10AC040020F00202112A05D043F20142904201D001
:10AC1400FCF766F922680323B2FBF3F303EB430367
:10AC2400D31A064A18BF0123137010BD58370020E9
:10AC34003C3600206837002090370020422C00204A
:10AC440008B50D490D48FEF714FB4FF6FE72C1B26C
:10AC54000B4804F015F830F008020BD020F0020283
:10AC6400112A07D043F20142904203D0BDE80840C4
:10AC7400FCF736B908BD00BF0C3700201C37002094
:10AC8400F83600200388212B13B5044636D005D8A6
:10AC9400102B0CD0112B23D002B010BD3B2B01D0B4
:10ACA400562BF9D11321A088FFF76CFF13E0184B42
:10ACB40018491888000440F00300FBF799FE0720A8
:10ACC400FFF73CFE08B1FCF70BF9134BA1881348BE
:10ACD400198002F00DF90028DED0FCF701F9DBE75A
:10ACE4000B4B227A18880E49000440F00300FBF74E
:10ACF40083FE094B4FF6FF721A80CDE7002301A9AA
:10AD040080888DF804308DF80530FFF743FFE2E7C3
:10AD1400A42B0020F5050300402C0020E037002080
:10AD2400000603000A8840F677239A4210B50C46C1
:10AD340009D1084B4A8818888B880749000440F0D9
:10AD44000300FBF763FE21460448BDE8104004F00D
:10AD5400DEBA00BFA42B00201906030090370020A0
:10AD640008B503784BB9054B3B211888FFF70AFF58
:10AD740018B1BDE80840FCF7B3B808BD402C00206A
:10AD8400072808B513D00A280DD0042819D10D4B73
:10AD940013211888FFF7F6FE30F0080311D0BDE840
:10ADA4000840FCF79DB8BDE80840FFF7F8BE054B26
:10ADB4001A884FF6FF739A4203D1034800F087FFC5
:10ADC400EAE708BD402C00204036002008B588B1D1
:10ADD400032813D10A4B0B491888000440F00300E0
:10ADE400FBF706FE0220FFF7A9FD38B1BDE80840D5
:10ADF400FCF776B8BDE80840FFF7D1BE08BD00BF38
:10AE0400A42B00209A06030008B51B4B1B78002BCB
:10AE140031D01A491A48FEF72CFA81B2194804F0C5
:10AE240059FA16491648FEF724FA81B2154804F077
:10AE340051FA12491248FEF71CFA81B2114804F083
:10AE440049FA0E490E48FEF714FA81B20D4804F08F
:10AE540041FA0A490A48FEF70CFA81B2094804F09B
:10AE640039FA06490648FEF704FABDE8084081B2FB
:10AE7400044804F02FBA08BD422C0020EC3700200F
:10AE8400FC3700209037002008B50321044800F067
:10AE9400B5FD18B1BDE80840FCF722B808BD00BFF5
:10AEA4004036002030B5037885B004460D2B10D809
:10AEB400DFE803F0070F110F220F2A390F350F397E
:10AEC40032391A4B1A491888000440F00300FBF782
:10AED4008FFD05B030BD154B40881D8801F0F4F896
:10AEE4002D04227A009245F0030502466388114935
:10AEF4002846FBF795FDECE704A9002301F8043D7F
:10AF0400408802F0E3FDE4E7FDF7C4F930F00803FC
:10AF1400DFD0FBF7E5FFDCE7FFF7B6FFD9E7006911
:10AF24000028D6D0F5E78068FAE700BFA42B0020FC
:10AF3400AC060300D5060300FBF7D2BF08B570B119
:10AF4400094B0A491888000440F00300FBF750FD40
:10AF540002F0CAFD38B1BDE80840FBF7C1BFBDE847
:10AF64000840FFF791BF08BDA42B0020E8050300AB
:10AF740080B54FF40041B8B00020FBF771FB08B175
:10AF8400FBF7AEFFFBF796FAFCF7F6F908B1FBF70F
:10AF9400A7FFC24AC2480121FCF720FA08B1FBF717
:10AFA4009FFFC04AC0480121FCF718FA08B1FBF71B
:10AFB40097FFBE4ABE480121FCF710FA08B1FBF71F
:10AFC4008FFFBC4ABC480121FCF708FA08B1FBF723
:10AFD40087FFBA490320FFF7BDFC08B1FBF780FFE8
:10AFE4000DA90020FFF7ACFD08B1FBF779FF9DF830
:10AFF4003450AC1E65426541FEF79AF808B1FBF780
:10B004006FFF04F0F3F908B1FBF76AFF00230DA901
:10B0140001200D9304F0BEFA08B1FBF761FF0DA8FF
:10B0240004F082FB08B1FBF75BFF9DF82030A448D5
:10B03400012262F3030338AC62F3071304F8C03D42
:10B0440004F066FD9E4982B22046FFF7A1FD08B1D7
:10B05400FBF746FF40F24130FFF796FD08B1FBF7DE
:10B064003FFF082200210DA804F01EFD4FF4A07339
:10B07400ADF834304FF40273ADF836300023ADF838
:10B0840038300DA84FF4C873ADF83A30FFF77EFDA1
:10B0940008B1FBF725FF8B498B4801F01BFE08B173
:10B0A400FBF71EFFAC2200210DA804F0FDFC0223D7
:10B0B4008DF83430012306228DF836308DF8B03007
:10B0C4004FF496738DF837202F93032244F2506384
:10B0D400ADF8442030937D4A7D4B7E4812920DA9F1
:10B0E400369300F01AFC08B1FBF7FAFE0121794807
:10B0F40000F010FC38A9784B41F8D83D774801F0AE
:10B10400E5FE08B1FBF7ECFE03231422002103A89B
:10B114008DF8073004F0C8FC0DF1070305939DF882
:10B1240018306F48012262F3030362F307138DF8AA
:10B1340018309DF819308DF81020002103F0F00329
:10B1440061F307138DF819309DF81A30039103F059
:10B15400F00361F307138DF81A309DF81B3062F386
:10B16400030362F307138DF81B309DF81C3003F0C2
:10B17400F00361F3071303A98DF81C3004F003F8FE
:10B1840008B1FBF7ADFE14220021204604F08CFC2C
:10B194009DF82D205348012363F3030263F3071240
:10B1A4008DF82D209DF82E208DF8243063F30302B2
:10B1B40063F307128DF82E209DF82F2002F0F00281
:10B1C4006FF307128DF82F209DF8302063F30302EC
:10B1D40063F307128DF8302064230022214608927D
:10B1E4000A928DF82C3003F06AFC08B1FBF778FE64
:10B1F400402200210DA804F057FC0DA83A4900F0A4
:10B20400FDFF9DF87030012262F3030362F307131C
:10B214008DF870309DF8713003F0F0036FF307136D
:10B224000DA88DF8713003F0F5FD08B1FBF758FE59
:10B234002E492F4851230126642781E888008E6017
:10B244000E73FDF7EFFF2B494FF496720A238C20FF
:10B2540081E80D00002428480C73FDF7E3FF27491B
:10B2640027480F604FF4FA734B608E600C73FDF740
:10B27400D9FF1C2221460DA804F016FC4FF42033FC
:10B284000E934FF470230F9303238DF84030144B27
:10B294000D949B89ADF8423034E000BF45AC020008
:10B2A40048060300E5AB02004C0603000DAE0200A5
:10B2B40050060300CDAB02005406030085AD020026
:10B2C4005806030029AD020044370020342C002026
:10B2D400D1AD0200403600203DAF0200E03700202F
:10B2E40090370020F8360020630603000C37002056
:10B2F4001C3700205837002068370020EC37002026
:10B30400FC3700203D4B12930DA83D4B8DF8444073
:10B31400139300F0FBFD08B1FBF7E2FD02F082FBA2
:10B3240008B1FBF7DDFD052200210DA804F0BCFBEC
:10B334009DF8343043F00103032203F0FD0362F36C
:10B3440006136FF3C7138DF8343007238DF83530A7
:10B3540010238DF836309DF8373013438DF837308D
:10B364009DF838300DA813438DF8383002F0A4FB53
:10B3740008B1FBF7B5FD234802F086FB08B1FBF7E3
:10B38400AFFD2148FCF79CFD08B1FBF7A9FD1F4B5D
:10B394001F491888000440F00300FBF729FB002232
:10B3A4004FF480311B48FCF72BF808B1FBF798FDEC
:10B3B40000224FF400411848FCF722F808B1FBF7CB
:10B3C4008FFD002242F266611448FCF719F808B1B7
:10B3D400FBF786FD00224FF420311148FCF710F8EA
:10B3E40008B1FBF77DFD2846FFF7A8FDFBF79EF9A2
:10B3F4000028FBD1FDF7B2FEF8E700BF65AD0200FF
:10B404009FAB0200A9AE02009DAB0200A42B00205A
:10B41400770603002437002070370020043800200A
:10B42400243800206DDF704779DF70477DDF704777
:10B4340064DF70472DE9F74F0C9CBDF834B02788C2
:10B44400002580468A4691462E46B8F8002096424A
:10B454000BDB35B12288013AD21B92B2FF2A39D8CC
:10B46400DA55002003B0BDE8F08FD8F8042052F874
:10B474002600019000220DF1030101A8FFF7D8FF77
:10B484000028EFD19DF803204A4521D12288002DC0
:10B4940014BF0020022002EB09010144594519DCC4
:10B4A4003DB9013292B2228003F802A0228801320F
:10B4B400228022880DF103011A4401A8FFF7B8FF86
:10B4C4000028CFD121889DF803200A442280012539
:10B4D4000136BAE70C20C5E72DE9F341089CBDF815
:10B4E400245017468DE8300002220646FFF7A2FFDB
:10B4F40048B91022394630460995089402B0BDE88F
:10B50400F041FFF797BF02B0BDE8F0812DE9F04F9D
:10B5140000231688138090F82D3085B007460D4619
:10B52400144643B3082E4ED902A8FFF77BFF002828
:10B5340040F0FF8013880822CA54238801339BB249
:10B544001B222380CA542088013080B22080062226
:10B554000DF10901284404F07DFA23889DF80820A0
:10B5640006339BB212F0FE0218BF01222380EA5474
:10B57400238801332380BB78FBB123880433B3428F
:10B5840021D802A8FFF750FF002840F0D28023887A
:10B594000322EA54238801339BB219222380EA54FC
:10B5A4002388BDF8082001339BB2E9182380EA54AC
:10B5B400120A4A70238802332380FA78AAB12388B6
:10B5C400D91CB14201D90C20B3E00221E9542388EB
:10B5D40001339BB201212380E95423880B449BB29D
:10B5E4002380EA5423880B4423807A68AAB12388F1
:10B5F400D91CB142E7D8022192F90020E9542388EA
:10B6040001339BB20A212380E954238801339BB27E
:10B614002380EA542388013323803B89002B7CD187
:10B624003B8A53B18DE850002B460722032107F1D2
:10B634001000FFF751FF00287BD13B8B53B18DE8FD
:10B6440050002B461522142107F11800FFF744FF80
:10B6540000286ED13A6A002A6ED1D7F82480B8F156
:10B66400000F2ED0B8F804302188981C8A1C02449C
:10B67400B242A8D8FE28A6D803336B5423880133DA
:10B684009BB2FF222380EA54238801339BB2238098
:10B69400B8F80020EA54E918120A4A7020880230E7
:10B6A40080B22080B8F804205AB1D8F808100029D4
:10B6B4004CD0284404F0CEF92388B8F8042013446D
:10B6C400238097F82C30002B7BD1387888B33B88C3
:10B6D400012B3BD021888A1CB2423FF674AF01286B
:10B6E40005D17B7802330B449E42FFF46CAF023EDB
:10B6F400761A04A9B6B221F8086DA818FFF796FEC9
:10B70400B8B93B78022B40F09F80BDF80830B342B3
:10B7140040F2B680ADF808609FE08DE850002B46FB
:10B724000622022107F10800FFF7D6FE00283FF4A5
:10B7340077AF05B0BDE8F08FB4F800E00EF1060372
:10B74400B3423FF640AF1188052901D80720F0E73E
:10B754006FF4486C01EB0C039BB24FF27D3C6345E4
:10B76400F4D95388052BF1D96FF44860181880B2C6
:10B774006045EBD94FF6FF70814203D0834201D07C
:10B784009942E3D8052305F80E30238801339BB290
:10B7940012212380E954238801339BB2238011882A
:10B7A400E954E818090A4170238802339BB22380C4
:10B7B4005288EA54E918120A4A7023880233238013
:10B7C4004BE7BB6A002BC1D04FF000094FF00C0AC5
:10B7D4004FF0160B97F82C305FFA89F293427FF6FC
:10B7E40074AFB96A0AFB02F201EB0208B8F804303C
:10B7F400981CFE283FF6E7AE208803332B54238899
:10B8040001339BB2238005F803B0238801339BB234
:10B8140023808A5AEA54E918120A4A7020880230AE
:10B8240080B22080B8F804205AB1D8F80810002952
:10B834008CD0284404F00EF92388B8F8042013446B
:10B84400238009F10109C5E7012B7FF463AF7B78FD
:10B854009E42FFF45FAFADF808300821BDF8083010
:10B86400FE2B3FF6B0AE22880133AB54228801325E
:10B8740092B22280A954228813442380002058E7DE
:10B884000921EBE770B558B14AB116880024B442D7
:10B8940003D305196D789D4208D08C4201D3002052
:10B8A40070BD055D01352C44A4B2F0E78C42F6D29C
:10B8B400A31C1380005D013880B270BD37B502ACA3
:10B8C400002324F8023D134622460546FFF7DAFF1B
:10B8D40010B1BDF80600284403B030BD72DF7047D4
:10B8E40073DF704774DF704738B5012204460D4694
:10B8F400B0F89810D0F89400FFF7E0FF00B105709D
:10B9040004F13C0204F1940104F15400BDE8384010
:10B91400FFF7E4BF80F830107047F8B504460F46CF
:10B9240081B178B191F87A3013B191F898303BB97C
:10B93400D7F8A030042B03D0D7F89C30042B03D1C4
:10B944000720F8BD0E20F8BD07F178060FCE4FF0A2
:10B95400000E251D84F802E00FC50FCE0FC596E832
:10B96400070085E8070084F830E0D7F8A430636363
:10B97400D7F8A830A3634FF6FF7504F19403C4F815
:10B98400A430A4F8A8500722714604F1AA0004F0D8
:10B994008BF823780BB984F85450224604F15501EE
:10B9A4001F25C4F89410384622F8985FFFF7AEFDBF
:10B9B40010BB224604F17401C4F89C1007F13C004A
:10B9C40022F8A05FFFF7A2FDB0B9A269A4F848204D
:10B9D40001236269206484F850006264014684F89B
:10B9E400513084F83C3004F13C0204F15400FFF778
:10B9F40075FF08B92370F8BDF8BD0000F8B50778E5
:10BA040004460D46002F00F0F680A1700020FDF7DB
:10BA14002DF9014618B1012363700020F8BD04F12B
:10BA2400AA060722304604F03FF8E38813B1A3784E
:10BA3400012B04D0E3794BB1A378022B06D1636BBD
:10BA44009BB1012284F8B12008209847324604F1C2
:10BA5400B00112F8013F5BB98A42FAD16A1E032A87
:10BA64003CD8DFE802F0070D101284F8B130EDE79E
:10BA74003B46F3E7A2791AB194F8242002B94BB9F2
:10BA8400E27902B163BB237A63BB637A002B0CBFF8
:10BA940000250425636BA57033B3033D012D23D822
:10BAA40062790AB394F8B220F2B984F8B42001227E
:10BAB40084F8B3200720984704F13C05182200219C
:10BAC400284603F0F1FFE36A0122591E914284F8EB
